:020000040800F2
:100000003004002005010008FB0800086B08000808
:10001000F90800086B070008ED1000080000000058
:100020000000000000000000000000005D0D00085E
:100030006D07000800000000930C0008E90E00089E
:100040001F0100081F0100081F0100081F01000810
:100050001F0100081F0100081F0100081F01000800
:100060001F0100081F0100081F0100081F010008F0
:100070001F0100081F0100081F0100081F010008E0
:100080001F0100081F0100081F0100081F010008D0
:100090001F0100081F0100081F0100081F010008C0
:1000A0001F0100081F0100081F0100081F010008B0
:1000B0001F0100081F0100081F0100081F010008A0
:1000C0001F0100081F0100081F0100081F01000890
:1000D0001F0100083D0F00081F0100081F01000854
:1000E0001F0100081F0100081F010008DFF810D0E1
:1000F00000F03AFA004800475D250008AFF30080A1
:10010000300400200648804706480047FEE7FEE727
:10011000FEE7FEE7FEE7FEE7FEE7FEE7FEE7FEE7B7
:10012000ED0E0008ED000008420005D0C0F3C752F4
:100130005242914201DC0020704700EBC1507047F1
:1001400020F00040C10DC0F3160040F400007F29EC
:1001500001DA00207047962903DCC1F19601C840FE
:10016000704796398840704730B50B4601460020ED
:100170002022012409E021FA02F59D4205D303FA69
:1001800002F5491B04FA02F52844151EA2F10102EA
:10019000F1DC30BD2DE9F05F0546002092469B461C
:1001A00088460646814640241BE02846414647468D
:1001B000224600F0FAF953465A46C01A914110D32C
:1001C00011461846224600F0E1F92D1A67EB0108A6
:1001D0004F4622460120002100F0D8F917EB000914
:1001E0004E41201EA4F10104DFDC484631462A4678
:1001F0004346BDE8F09F2DE9FE4F804681EA0300AB
:10020000C00F0C46009021F0004123F00045B8EBF0
:100210000200A94105D24046214690461C460B46A5
:10022000024623F00040104347D0270DC7F30A00D1
:10023000C3F30A510290401A019040286BDAC3F3CD
:10024000130040F4801B0098924620B10023D2EBAB
:10025000030A63EB0B0B01985946C0F1400250466C
:1002600000F094F906460D4650465946019A00F0B2
:10027000ACF910EB08006141002487EA115284EACE
:10028000E7731A4340D0009A62B3019A012A4FEAF9
:10029000075215DC001B61EB02014FF0004202EA3D
:1002A0000752CDE90042001C41F5801132462B4631
:1002B00000F0ACF903B0BDE8F08F40462146F9E705
:1002C000001B61EB0201001C41F5801300185B412B
:1002D0002018A2F5001747EB030140EAD570B619C4
:1002E0006D4111E06D084FEA360645EAC0754FEAE8
:1002F0000752001B61EB0201001C41F58011490807
:100300004FEA30000019514132462B4603B0BDE898
:10031000F04F00F06CB90098012240000023D0EBB0
:10032000020263EBE073009821464FEAE074B8EBF9
:10033000000061EB0401E9E783F000435BE781F033
:10034000004158E72DE9FE4F81EA030404F0004420
:1003500021F0004100944FF0000B23F0004350EADD
:1003600001045ED052EA03045BD0C3F30A54C1F324
:100370000A552C44A4F2F3340194A0FB0254C1F3B7
:10038000130141F48011C3F3130343F4801301FB01
:10039000024400FB034E840A970A44EA815447EA68
:1003A0008357A4FB076802958D0A05FB07854FEA72
:1003B000932C04FB0C542705029D4FEA065847EA8C
:1003C0001637B5EB08056EEB070C870E920E47EA61
:1003D000811742EA8312A7FB0201B6EB0B0164EB23
:1003E00000042B0D43EA0C335E1844EB1C50DA4634
:1003F0005146E7FB0201C5F313044FEA0B3343EA0E
:1004000014534FEA0432019C43EA0603A4F10C049E
:100410000294009CCDE900B400F0F8F803B0BDE808
:10042000F08F00200146F9E72DE9F04D81EA030441
:1004300004F0004B21F0004514464FF0000A23F071
:10044000004150EA050220D054EA01021DD0C5F354
:100450000A570246C5F31303C1F31300C1F30A564A
:1004600040F4801543F48013A7EB0608101BD64612
:1004700008F2FD3873EB050002D308F1010801E032
:1004800092185B41B8F1000F03DA00200146BDE885
:10049000F08D00204FF48011064684460EE0171BB5
:1004A00073EB050705D3121B63EB050306434CEA08
:1004B000010C49084FEA300092185B4150EA0107ED
:1004C000EDD152EA030012D082EA040083EA05016A
:1004D000084305D0101BAB4106D20122002306E0E1
:1004E00000224FF0004302E06FF0010253101AEBBC
:1004F00006004CEB085110EB0A0041EB0B01BDE884
:10050000F04D00F074B8C1F30A52C1F3130140F288
:10051000FF3341F480119A4202DA0020014670470D
:1005200040F233439A42A2F2334202DC524200F0DC
:100530003CB800F02BB8000030B5041E71F1000487
:1005400004DB4FF00044404264EB0101141E73F1E0
:10055000000405DB1C464FF00043524263EB0403EA
:10056000994208BF904230BD064C074D06E0E06856
:1005700040F0010394E8070098471034AC42F6D3EA
:10058000FFF7B8FD0C2D00082C2D0008202A04DBF5
:10059000203A00FA02F1002070479140C2F1200396
:1005A00020FA03F3194390407047202A04DB203AD5
:1005B00021FA02F00021704721FA02F3D040C2F183
:1005C00020029140084319467047202A06DBCB17CA
:1005D000203A41FA02F043EAE07306E041FA02F3FE
:1005E000D040C2F12002914008431946704710B52F
:1005F000141E73F1000408DA401C41F10001921846
:100600005B411A4301D120F0010010BD2DE9F04DEE
:1006100092469B4611B1B1FA81F202E0B0FA80F243
:1006200020329046FFF7B2FF04460F4640EA0A0028
:1006300041EA0B0153465A46084313D0114653EA88
:10064000010019D0C8F140025046FFF7AEFF054641
:100650000E46504659464246FFF798FF084305D0DC
:10066000012004E020463946BDE8F08D0020054316
:1006700046EAE0762C4337430A986305E40AA0EB88
:1006800008000022FD0A44EA47540A3002D500203F
:100690000146E9E7010510196941DDE9084500193E
:1006A0006941BDE8F04DA2E770B50025012000F0DA
:1006B00015F900248026012000F002F900F0F2F87C
:1006C000012802D126FA04F00543002000F0F8F8D2
:1006D000641C082CEFDB284670BD10B5012000F02B
:1006E000FDF8012000F0ECF800F0DCF804460020F2
:1006F00000F0E6F8204610BD10B500F0EFF801203C
:1007000000F0DEF8BDE81040002000F0D9B810B5C8
:10071000012000F0E3F8012000F0D2F8002000F002
:10072000DDF8BDE81040002000F0CAB810B5002088
:1007300000F0D4F8012000F0C3F8BDE8104001201B
:1007400000F0CCB870B505460024802626FA04F0E7
:10075000284000F0C3F8012000F0B2F8002000F0BB
:10076000AFF8641C082CF1DB70BDFEE7704700B5E4
:1007700002464FF47A7302E0184600F004F8521E65
:10078000501CF9D100BD00EBC000C1004FF0E020CB
:10079000416100218161052101610169C903FCD525
:1007A0000421016170472DE9F0410022CC7804F06A
:1007B0000F03E40601D58C7823430C784FF00F0724
:1007C00014F0FF0F4FF0010C1CD005680CFA02F476
:1007D0000E882640A64211D1960007FA06F825EAAF
:1007E000080503FA06F848EA0505CE78282E02D057
:1007F000482E02D002E0446100E00461521C082A45
:10080000E4D305600A88FF2A1ED94568002202F158
:1008100008060CFA06F40E882640A64210D196006F
:1008200007FA06F825EA080503FA06F848EA050576
:10083000CE78282E00D14461CE78482E00D10461B4
:10084000521C082AE3D34560BDE8F081024600202F
:1008500092680A4200D00120704701617047002A67
:1008600001D00161704741617047FEE738B5012151
:10087000082000F00FFA14208DF803004FF44064B4
:10088000ADF8004003208DF80200054D694628466A
:10089000FFF789FF21462846FFF7DFFF38BD00003C
:1008A000000C014010B54FF400610448FFF7CEFF83
:1008B00004460A20FFF767FF204610BD000C0140E8
:1008C00010B502464FF480610348FFF7C8FFBDE84A
:1008D00010400A20FFF757BF000C014010B5024638
:1008E0004FF400610348FFF7BAFFBDE810400A204B
:1008F000FFF749BF000C0140FEE7704770B50F23BA
:10090000C27801260178002A1ED0144A126802F427
:10091000E062C2F5E062120AC2F10404D3404578F5
:10092000A54082781A402A43120101F1E02181F8A2
:100930000024007800F01F018E404009800000F183
:10094000E020C0F8006170BD01F01F00864048093A
:10095000800000F1E020C0F8806170BD0CED00E087
:100960000249084302490860704700000000FA0588
:100970000CED00E070B500250021284600F0F6F8E7
:100980000024002000F074F9641CE4B2802CF8D339
:100990006D1CEDB2082DEFD370BD0000F8B501213C
:1009A000082000F077F914208DF8030003208DF85B
:1009B00002004FF48074ADF800400B4E694630469B
:1009C000FFF7F1FE6500ADF8005069463046FFF7CD
:1009D000EAFE012221463046FFF741FF0122294667
:1009E0003046FFF73CFFF8BD000C01402DE9F04711
:1009F00007460024134D4FF080094FF40078AE15E0
:100A000029FA04F23A4041462846FFF728FF01221E
:100A100031462846FFF723FF002231462846FFF7DC
:100A20001EFF641CE4B2082CEAD30122314628469A
:100A3000FFF715FF31462846BDE8F0470022FFF7D3
:100A40000EBF0000000C014070B501220B4D540296
:100A500021462846FFF703FF0122160231462846A9
:100A6000FFF7FDFE002221462846FFF7F8FE31463B
:100A70002846BDE870400022FFF7F1BE000C01409F
:100A800070B50A4D4FF40074002221462846FFF746
:100A9000E6FE012211022846FFF7E1FE2146284624
:100AA000BDE870400122FFF7DABE0000000C0140F3
:100AB00010B500214FF47A720020401C9042FCD304
:100AC000491C9142F8D3FFF769FFAE2000F0BFF850
:100AD000D52000F0BCF8802000F0B9F8A82000F084
:100AE000B6F83F2000F0B3F8D32000F0B0F80020B3
:100AF00000F0ADF8402000F0AAF8A12000F0A7F81F
:100B0000C82000F0A4F8DA2000F0A1F8122000F0CC
:100B10009EF8812000F09BF8CF2000F098F8D920B3
:100B200000F095F8F12000F092F8DB2000F08FF84B
:100B3000302000F08CF8A42000F089F8A62000F006
:100B400086F88D2000F083F8142000F080F8AF20A4
:100B500000F07DF8BDE81040FFF70CBF0346012010
:100B600000E05843491E4A1CFBD1704710B50C46A3
:100B700040F0B00000F06BF8102040EA141000F0D4
:100B800066F804F00F00BDE8104000F060B8000007
:100B90002DE9F0411546491E461ECF007006F9B2F8
:100BA000000EFFF7E3FF00240E48203D00EB051583
:100BB000285D00F05DF8641CE4B2082CF8D3012035
:100BC00000EB4600F9B2C0B2FFF7D0FF00242819AD
:100BD000007A00F04DF8641CE4B2082CF7D3BDE8AD
:100BE000F08100001C2700082DE9F04781460F46E0
:100BF00090461E4600240A2512E0311B491E0A2099
:100C0000FFF7ACFFB8FBF0F2B2FBF5F005FB1022EA
:100C10003819C1B230324846FFF7BAFF641CE4B25B
:100C2000B442EAD3BDE8F0872DE9F04107460D460E
:100C30001646002406E02819C1B23846FFF7A8FF7F
:100C4000641CE4B2325D002AF5D1BDE8F08110B534
:100C50000446FFF7F9FE7820FFF7C8FE0020FFF7F3
:100C6000C5FE2046FFF7C2FEBDE81040FFF708BFF3
:100C700010B50446FFF7E8FE7820FFF7B7FE4020E6
:100C8000FFF7B4FE2046FFF7B1FEBDE81040FFF7C6
:100C9000F7BE7047054A002903D09169014391616D
:100CA00070479169814391617047000000100240D4
:100CB00010B5264A516801F00C01254B002927D0B8
:100CC000042927D0082927D00360516801F0F001DA
:100CD0000909204B5C5C0168E1404160546804F400
:100CE000E064240A1C5D21FA04F48460546804F46E
:100CF0006054E40A1B5DD940C160526802F440426E
:100D0000920B144B1B1F9A5CB1FBF2F1016110BDF9
:100D10000360DAE70360D8E7516801F470115368A3
:100D200003F48033022404EB914133B153689B03F5
:100D300007D5094B59430160C7E7074B5943016089
:100D4000C3E7034B59430160BFE7000000100240B6
:100D500000127A000400002000093D0070470000E6
:100D600030B587B001218803FFF794FF01210420EB
:100D7000FFF790FF18208DF81B004FF40070ADF8BE
:100D8000180003248DF81A40204D06A92846FFF7C5
:100D90000AFD48218DF81B102915ADF818108DF8A3
:100DA0001A4006A92846FFF7FEFC4FF416500290A1
:100DB0000020ADF814000C21ADF81210ADF81000B1
:100DC000ADF80E00ADF80C00114C02A9204600F061
:100DD00027F9012240F22551204600F006F94FF490
:100DE000A060FFF7BDFD25218DF8041001218DF8CD
:100DF00007108DF805108DF8061001A8FFF77EFD8D
:100E00000121204600F0BEF807B030BD00080140C7
:100E10000038014010B5064C0146204600F062F94A
:100E20008021204600F0BAF80028F9D010BD00005B
:100E300000380140AFF300800CB50022019200920F
:100E40002748016841F4803101604FF4A0630168D4
:100E500001F4003100910199491C0191009911B9E7
:100E600001999942F3D10168890302D501210091CA
:100E700000E000920099012930D11A490A6842F035
:100E800010020A600A6822F003020A600A6842F04F
:100E900002020A604168416041684160416841F472
:100EA00080614160416821F47C114160416841F4F6
:100EB000E8114160016841F08071016001688901B9
:100EC000FCD5416821F003014160416841F0020115
:100ED00041604168C1F381010229FAD10CBD0000D3
:100EE00000100240002002407047000010B50F487B
:100EF000016841F00101016041680D4A1140416003
:100F000001680C4A11400160016821F480210160F0
:100F1000416821F4FE0141604FF41F018160FFF739
:100F200089FF05494FF00060086010BD00100240C5
:100F30000000FFF8FFFFF6FE08ED00E070B50B4D76
:100F400040F225542146284600F02FF801280CD104
:100F5000284600F0C3F8064A107001205070214660
:100F60002846BDE8704000F005B870BD003801406B
:100F70001400002040F66A120A0A01219140C94378
:100F800001807047002904D0818941F4005181819A
:100F90007047818921F40051818170470246002009
:100FA00012880A4200D00120704770B5002440F634
:100FB0006A12C1F3421301F01F05012606FA05F279
:100FC000012B0CD0022B0DD0838A1340090A8E40CE
:100FD000008830400BB100B10124204670BD8389E8
:100FE0001340F3E7038A1340F0E710B540F66A13A5
:100FF000C1F3421301F01F040121A140012B07D0CE
:10100000022B07D014303AB102680A43026010BDC7
:101010000C30F8E71030F6E702688A43026010BD32
:1010200030B585B004460D46208A4CF6FF71084065
:10103000E98801432182A0894EF6F3110840A9886E
:101040002A8911436A8902431143A181A08A4FF67C
:10105000FF410840A9890143A1826846FFF728FEA5
:101060001D48844201D1039800E00298A189090437
:1010700008D500EBC00101EB001029684900B0FB66
:10108000F1F007E000EBC00101EB001029688900D6
:10109000B0FBF1F06422B0FBF2F109010B096FF033
:1010A00018056B4300EB8300A3891D044FF0320346
:1010B00007D503EBC000B0FBF2F000F007000843D7
:1010C00006E003EB0010B0FBF2F000F00F00084365
:1010D000208105B030BD0000003801408088C0F399
:1010E00008007047C1F3080181807047FEE70000E7
:1010F0002DE9FF4706460C46C021304600F098FA1D
:10110000FE4D68700146FEA000F0BCFD6878EE2838
:1011100003D0002004B0BDE8F0874CB189213046EF
:1011200000F086FA40F001028921304600F0D3FA3F
:1011300000228821304600F0CEFA0122802130467C
:1011400000F0C9FA0122FF21304600F0C4FA002263
:101150001146304600F0BFFA9121304600F068FA9F
:10116000A8700146EBA000F08DFD01220021304661
:1011700000F0B1FA0022FF21304600F0ACFA002264
:101180008021304600F0A7FA6021304600F050FA86
:1011900040F012026021304600F09DFA4FF07A5183
:1011A000304601F079FAFF220121304600F093FA2F
:1011B00002AA03A9304600F047FB18B306236A468B
:1011C000B021304600F0FCFB0122FF21304600F048
:1011D00082FA00224F21304600F07DFA2C224E2167
:1011E000304600F078FA0022FF21304600F073FA12
:1011F000B422B621304600F06EFA9DF8080018B10E
:101200000C2702E0002085E70027002100209DF840
:101210000CC001246B46B84201D361450CD103EBED
:10122000D00200F0070992F8008004FA09F928EAD0
:10123000090882F800800AE003EBD00200F00708FA
:10124000127822FA08F2D20701D0491CC9B2401C18
:10125000C0B23028DFD306236A46B021304600F002
:10126000EFFC0122FF21304600F035FA0022114642
:10127000304600F030FA0022FF21304600F02BFA11
:1012800000220921304600F026FA002210213046C3
:1012900000F021FA00221121304600F01CFA012250
:1012A0002421304600F017FAFF222521304600F0B5
:1012B00012FA00227521304600F00DFA0122FF21BA
:1012C000304600F008FA2C224E21304600F003FA96
:1012D00000224821304600F0FEF92022302130461D
:1012E00000F0F9F90022FF21304600F0F4F909225C
:1012F0003021304600F0EFF900225421304600F052
:10130000EAF904223121304600F0E5F903223221C6
:10131000304600F0E0F983224021304600F0DBF94E
:1013200025224621304600F0D6F9002260213046C1
:1013300000F0D1F900222721304600F0CCF9062236
:101340005021304600F0C7F900225121304600F00C
:10135000C2F996225221304600F0BDF908225621EA
:10136000304600F0B8F930225721304600F0B3F98A
:1013700000226121304600F0AEF9002262213046A1
:1013800000F0A9F900226421304600F0A4F90022FF
:101390006521304600F09FF9A0226621304600F01A
:1013A0009AF90122FF21304600F095F932222221DC
:1013B000304600F090F914224721304600F08BF9B6
:1013C000FF224921304600F086F900224A213046AA
:1013D00000F081F90022FF21304600F07CF90A225A
:1013E0007A21304600F077F900227B21304600F068
:1013F00072F921227821304600F06DF90122FF2197
:10140000304600F068F934222321304600F063F9B9
:1014100000224221304600F05EF9FF22442130468E
:1014200000F059F926224521304600F054F90522F2
:101430004621304600F04FF940221146304600F078
:101440004AF906220E21304600F045F91A222021E1
:10145000304600F040F940224321304600F03BF98D
:101460000022FF21304600F036F9032234213046B5
:1014700000F031F944223521304600F02CF90122E8
:10148000FF21304600F027F904223121304600F0D8
:1014900022F909224B21304600F01DF905224C218A
:1014A000304600F018F904224D21304600F013F9BF
:1014B0000022FF21304600F00EF900224421304680
:1014C00000F009F920224521304600F004F90822F5
:1014D0004721304600F0FFF828224821304600F02E
:1014E000FAF800226721304600F0F5F80422702156
:1014F000304600F0F0F80122712115E018000020BC
:101500000A49445F72656769737465723D25640AB0
:10151000000000000A73746F705F76617269616227
:101520006C653D25640A0000304600F0D4F8FE22C8
:101530007221304600F0CFF800227621304600F0CC
:10154000CAF800227721304600F0C5F80122FF21B9
:10155000304600F0C0F801220D21304600F0BBF803
:101560000022FF21304600F0B6F8012280213046EB
:1015700000F0B1F8F8220121304600F0ACF8012269
:10158000FF21304600F0A7F801228E21304600F0FE
:10159000A2F801220021304600F09DF80022FF2130
:1015A000304600F098F800228021304600F093F891
:1015B00004220A21304600F08EF88421304600F0E3
:1015C00037F820F010028421304600F084F8012220
:1015D0000B21304600F07FF8304600F0CFF8A860CD
:1015E000E8220121304600F076F83046A96800F084
:1015F00097FA01221146304600F06DF8402130463E
:1016000000F0B0F980B102220121304600F063F809
:101610000021304600F0A6F940B1E8220121304611
:1016200000F059F8012075E5002073E5002071E510
:1016300070B504460D46FFF76AF86006000EFFF726
:1016400081F8FFF74AF82846FFF77CF8FFF745F8DE
:10165000FFF75DF8012000EB4400C0B2FFF772F81D
:10166000FFF73BF8FFF720F804460120FFF744F8A6
:10167000FFF75CF8204670BD70B504460D46FFF7D5
:1016800046F86006000EFFF75DF8FFF726F8E8B2AF
:10169000FFF758F8FFF721F8FFF739F8012000EBC2
:1016A0004400C0B2FFF74EF8FFF717F8FEF7FCFF53
:1016B00004460020FFF720F8FEF7F6FF054601205C
:1016C000FFF71AF8FFF732F84FF6FF7000EA042030
:1016D000284480B270BD70B504460D461646FFF72B
:1016E00016F86006000EFFF72DF8FEF7F6FF284605
:1016F000FFF728F8FEF7F1FF3046FFF723F8FEF773
:10170000ECFFBDE87040FFF711B8F8B506460F468C
:1017100000200090140AD5B2FEF7F9FF7006000E03
:10172000FFF710F8FEF7D9FF3846FFF70BF8FEF782
:10173000D4FF2046FFF706F8FEF7CFFF2846FFF755
:1017400001F8FEF7CAFFBDE8F840FEF7EFBFC1B2EF
:10175000000A8140491C88B27047002100280AD045
:10176000401E02E04008491C89B2020AFAD161F326
:101770001F2080B270470020704700002DE9F14F14
:1017800082B040F6363401210298FFF751FFC0F3D2
:101790000018C0F3C009C0F3800AC0F38016C00966
:1017A00001900121029800F0C8F883464621029872
:1017B000FFF73EFF401CC0B2594600F021FAC5B207
:1017C00051210298FFF758FFFFF7C1FFC7B25946F2
:1017D000384600F015FA00F0FF0B0221029800F0E5
:1017E000ACF8009071210298FFF746FFFFF7AFFFBA
:1017F000C0B20EB1C01BC0B2009900F001FAC0B275
:10180000B8F1000F01D005F68454B9F1000F04D0EF
:1018100005F2B22504EB450405E0BAF1000F02D051
:101820002C4404F5257416B15C4404F52574019923
:1018300011B1044404F22624024884602046BDE825
:10184000FE8F00001800002070B504460E461546B5
:10185000012280212046FFF73EFF0122FF21204682
:10186000FFF739FF002211462046FFF734FF06221A
:10187000FF212046FFF72FFF83212046FFF7D8FEE8
:1018800040F0040283212046FFF725FF0722FF21B5
:101890002046FFF720FF012281212046FFF71BFF92
:1018A000012280212046FFF716FF6B22942120465B
:1018B000FFF711FF002283212046FFF70CFF832151
:1018C0002046FFF7B5FE0028F9D0012283212046EB
:1018D000FFF701FF92212046FFF7AAFE00F07F01EB
:1018E0003170C0092870002281212046FFF7F3FEE5
:1018F0000622FF212046FFF7EEFE83212046FFF758
:1019000097FE20F0040283212046FFF7E4FE012227
:10191000FF212046FFF7DFFE012200212046FFF7CE
:10192000DAFE0022FF212046FFF7D5FE00228021AB
:101930002046FFF7D0FE012070BD10B5012903D06D
:10194000022908D0FF2010BD5021FFF771FE401C76
:101950004006000E10BD7021FFF76AFE401C4006D5
:10196000000E10BD70B5054641F001020021284669
:10197000FFF7B1FE00F08AFE104CA0800BE0E0887B
:1019800048B100F083FEA188401AE18880B2884205
:1019900001D9002070BD13212846FFF749FE4007FA
:1019A000EDD001220B212846FFF795FE00221146BB
:1019B0002846FFF790FE012070BD000018000020AF
:1019C0002DE9F04104460E4615461F46FEF79FFEE0
:1019D0006006000EFEF7B6FEFEF77FFE3046FEF70D
:1019E000B1FEFEF77AFEFEF792FE012000EB440006
:1019F000C0B2FEF7A7FEFEF770FE00247E1E07E0D1
:101A0000FEF752FE28550020FEF776FE641C24B235
:101A1000B442F5DBFEF748FEE91901F8010CBDE818
:101A2000F0410120FEF768BE70B5054600F02EFEBD
:101A3000114CA0800EE0E08860B100F027FEA18884
:101A4000401AE18880B2884204D9012020704FF604
:101A5000FF7070BD13212846FFF7EAFD4007EAD06A
:101A60001E212846FFF708FE044601220B212846C6
:101A7000FFF731FE204670BD1800002070B5054606
:101A8000012280212846FFF726FE0122FF21284659
:101A9000FFF721FE002211462846FFF71CFE1C4CD2
:101AA00091212846A278FFF716FE01220021284640
:101AB000FFF711FE0022FF212846FFF70CFE00224F
:101AC00080212846FFF707FE012200212846FFF764
:101AD00002FE00F0DBFDA0800EE0E08860B100F0C7
:101AE000D5FDA188401AE18880B2884204D901203E
:101AF00020704FF6FF7070BD00212846FFF798FD5B
:101B0000C007EAD12846BDE87040FFF78DBF00004E
:101B10001800002001F07F028A21FFF7DCBD0000E1
:101B20002DE9F34F83B00E4640F636340121039879
:101B3000FFF77EFDC0F30019C0F3C00AC0F38001B7
:101B40000291C0F38017C009019001210398FFF7AB
:101B5000F4FE834646210398FFF76AFD401CC0B29D
:101B6000594600F04DF8C5B251210398FFF784FDA6
:101B7000FFF7EDFD00F0FF085946404600F040F841
:101B800000F0FF0B02210398FFF7D7FE00907121B0
:101B90000398FFF771FDFFF7DAFDB9F1000F01D0EF
:101BA00005F68454BAF1000F04D005F2B22504EB17
:101BB000450404E0029810B12C4404F5257417B1D3
:101BC0005C4404F525740198B0B104F22624B442B3
:101BD00003D9002005B0BDE8F08F301B009900F05C
:101BE0001FF807B14044FFF7B8FD02467121039882
:101BF000FFF78BFD014886600120EBE7180000200D
:101C000043F62F2251434FF4FA7202EB01215200A6
:101C1000B1FBF2F1484300F5FA70B0FBF2F0704707
:101C200043F62F2251434FF4FA7202EB0121520086
:101C3000B1FBF2F1504300EB5100B0FBF1F0704703
:101C40002DE9F04104460F4615461E46FEF75FFD9E
:101C50006006000EFEF776FDFEF73FFD3846FEF704
:101C600071FDFEF73AFD002406E0285DFEF76AFDEF
:101C7000FEF733FD641C24B2B442F6DBBDE8F0414C
:101C8000FEF754BD0FB4054B10B503A9044A0298E2
:101C900000F0DAF810BC5DF814FB00004F250008D6
:101CA0002C00002002E008C8121F08C1002AFAD147
:101CB00070477047002001E001C1121F002AFBD1CC
:101CC000704700002DE9FF5F82B00021DDE904309C
:101CD000020DDDF840B0034318D044F61050A2F2D4
:101CE000FF3242431514119801281FD0A5EB0B00B9
:101CF000401C5FEA000A4FF000064E4FDFF83891B3
:101D0000B046504615D5CAF1000413E011980124DD
:101D10004AA3012801D16FEA0B010298119AC0E988
:101D20000031C0E9024206B0BDE8F09FCBF10000EF
:101D3000DFE704460021404A491842EB0450CDE950
:101D4000001012E0E00707D032463B4640464946C5
:101D5000FEF7F8FA8046894632463B461046194659
:101D6000FEF7F0FA06460F466410002CEAD1DDE9D2
:101D70000401DDE90023BAF1000F06DAFEF7E2FA0A
:101D800042464B46FEF7DEFA05E0FEF74DFB4246C3
:101D90004B46FEF749FB04460E460022284BFEF751
:101DA000CBFB03D84FF0FF30014607E00022254B64
:101DB00020463146FEF71FFAFEF7A5FB102409E086
:101DC000002C0ADB0A220023FEF7E4F9039B3032E1
:101DD0001A55641E50EA0102F2D1641C039AC4F140
:101DE00011031444119A012A03D0012208430DD192
:101DF0000AE0084304D000204FF0110B119072E765
:101E0000A3EB0B056D1E0DE05B4504DD4FF00002FA
:101E100005F1010504E003DA4FF00002A5F1010528
:101E2000002AECD002981199C0E90231C0E90045BE
:101E300079E70000000014400000F03F300000008F
:101E40000000F0430000E03F2DE9FF4F95B09A46B7
:101E5000884606460025EEE1252877D1002427464E
:101E6000F94A0121039400E0044316F8013F203BA6
:101E700001FA03F01042F7D130782A2811D06FF020
:101E80002F033078A0F13002092A16D8039A44F0C3
:101E9000020402EB820203EB42021044761C039020
:101EA000EFE758F8042B0392002A03DA504244F477
:101EB0000054039044F00204761C30782E2816D18A
:101EC00016F8010F44F004042A280DD06FF02F02F9
:101ED0003078A0F13003092B09D807EB870302EB18
:101EE0004303C718761CF3E758F8047B761C307858
:101EF0006C280FD006DC4C2817D068280DD06A2833
:101F000014D104E0742810D07A280FD10DE044F4E5
:101F100000140AE044F4801401E044F440147278A0
:101F2000824202D104F58014761C761C3078662833
:101F30000BD013DC582877D009DC002875D0452851
:101F4000F6D04628F4D047281AD193E118E0632848
:101F500035D0642879D0652812D18BE1702873D0F0
:101F600008DC6728F1D069286FD06E280DD06F2863
:101F700006D1ACE073282CD0752874D0782853D0C3
:101F80005246179990476D1C54E1C4F30250022841
:101F900009D003280DD0D8F8001004280DD00D600A
:101FA00008F1040846E1D8F80010EA17C1E9005228
:101FB000F6E7D8F800100D80F2E70D70F0E718F89A
:101FC000041B8DF8001000208DF80100EB46012065
:101FD00003E058F804BB4FF0FF3061074FF00001F9
:101FE00002D40DE009F101018946B9420FDA8145B9
:101FF000F8DB1BF809100029F4D108E009F1010110
:1020000089468142FADB1BF809100029F6D10398B2
:102010005346A0EB090721463846179A00F080FA8C
:10202000284400EB090507E044E008E10DE01BF857
:10203000010B524617999047B9F10109F7D253465F
:1020400021463846179AF2E039E00A21C4F30252D9
:102050004FF0000B0091022A06D058F8040BC1176C
:10206000032A09D00AE023E008F1070020F0070264
:10207000F2E80201904605E000B2C117042A01D13E
:1020800040B2C117002906DA0A460021404261EB3E
:1020900002012D2202E0220504D52B228DF8042016
:1020A000012203E0E20701D02022F7E7914657E042
:1020B0000A2100E010214FF0000B00910BE01021ED
:1020C0004FF0000B44F004040827009103E00820BF
:1020D0004FF0000B0090C4F30252022A05D058F8CA
:1020E000040B0021032A08D008E008F1070020F0C3
:1020F0000702F2E80201904603E080B2042A00D110
:10210000C0B24FF0000922072AD53278702A07D0D2
:10211000DDF800C08CF0100C5CEA0B0C05D00EE072
:1021200040228DF80420012208E050EA010306D085
:1021300030238DF804308DF8052002229146009B53
:1021400083F0080353EA0B030AD150EA010201D1DC
:10215000620705D530228DF804204FF001097F1E5B
:102160003278582A04D039A20C920CAA02920BE0C1
:102170003BA2F9E75B46009AFEF70CF80C9B9B5CD0
:10218000029A521E0292137050EA0102F2D1029892
:1021900004A9081A00F1200B600702D524F480344A
:1021A00000E001275F4502DDA7EB0B0000E0002007
:1021B00000EB0B01009003984944401A0390E003A0
:1021C00006D453462146179A039800F0A9F905440E
:1021D000002706E001A85246C05D179990476D1C84
:1021E0007F1C4F45F6DBE0030CD553462146179A7A
:1021F000039800F095F9054404E030205246179901
:1022000090476D1C0099481E00900029F5DC08E0FD
:102210000298029952460078491C029117999047FA
:102220006D1CBBF10001ABF1010BF1DC5BE100F0D7
:1022300065F90544761C307800287FF40DAE19B09E
:102240002846BDE8F08F0000092801003031323304
:1022500034353637383961626364656600000000E2
:1022600030313233343536373839414243444546CC
:1022700000000000600700D4062708F1070020F0E6
:102280000700F0E80223804603F0004C5FEA0C00F0
:1022900001D097A009E0200501D596A005E0E00750
:1022A00001D095A001E0AFF24C001390307823F0FC
:1022B000004365280CD006DC452809D046281DD0EF
:1022C00047287FD13BE0662818D067287AD136E0CE
:1022D0000021112F01DB112000E0781CCDE9000165
:1022E00004A90CA8FFF7EEFCDDE90D010C9A4FF0F4
:1022F000000B07F10109109200914EE04FF00040F1
:102300000097CDE9011004A90CA8FFF7DBFCDDE97B
:102310000D020C9B0F994FF0000B91461093009209
:1023200011B9791C00EB0109B7EB090003D4C0F126
:10233000FF3B07F10109A9EB0700019042E0012FE3
:1023400000DA01270021112F01DD112000E03846BD
:10235000CDE9000104A90CA8FFF7B4FCDDE90D01EB
:102360000C9A00914FF0000BB946109221070FD440
:10237000009A4A4503DA914601E0A9F10109B9F151
:10238000010F05DD109AA9F10101515C3029F4D04B
:10239000B84202DA10F1040F03DA0121CDE901108D
:1023A00010E0002803DC8344A9EB000102E0411C9B
:1023B000494500DD8946A0EB0B00401C01904FF021
:1023C00000400290200705D40198484502DB4FF0F9
:1023D000FF30019000208DF84B0002980DF14B0763
:1023E000B0F1004F25D002200C902B200D900298C8
:1023F00000280CDA404202902D200D9007E00A21BF
:102400000298FDF7B1FE3031029007F8011D0C99DA
:10241000481E0C900029F2DC02980028EFD1791EAA
:102420000D980870307800F0200040F0450007F863
:10243000020D11A8C01BC01D02901398007800B1B6
:10244000012000EB0901019801EBE07102980144C1
:102450000398401A401E0390E00306D453462146D9
:10246000179A039800F05CF805441398007818B1A7
:102470005246179990476D1CE00323D553462146D9
:10248000179A039800F04CF805441BE0BBF1000FCD
:1024900007DB0098584504DD1098179910F80B00D9
:1024A00001E0179930205246904701980BF1010B3B
:1024B000401E05F10105019004D12E2052461799C6
:1024C00090476D1CB9F10001A9F10109DEDC05E0BE
:1024D00017F8010B5246179990476D1C0299481E38
:1024E00002900029F4DC53462146179A03989EE691
:1024F0002D0000002B000000200000002DE9F0411D
:10250000044600251E461746880404D405E03946D3
:102510002020B0476D1C641EF9D52846BDE8F08127
:102520002DE9F041044600251E469046C80301D51A
:10253000302700E02027880404D505E041463846CE
:10254000B0476D1C641EF9D52846BDE8F08110B572
:102550000446E0B2FEF75EFC204610BDFEF7A8FA86
:10256000FEF7FEFBFEF782F900F0B0F801229103BE
:102570002A48FEF774F92A4C002280212046FEF7F3
:102580006EF9C820FEF7F3F801212920FEF7B0FD0F
:1025900010B924A0FFF776FB30212920FFF7BAFA03
:1025A000012280212046FEF75AF9C820FEF7DFF805
:1025B00001212920FEF79CFD10B91AA0FFF762FB4C
:1025C000234C4FF4FA753020FFF758FA208001466B
:1025D00020A0FFF757FB022122A20846FEF724FBAA
:1025E000042322880C210220FEF7FEFA2920FFF79F
:1025F00045FA608001461EA0FFF744FB20A202219D
:102600000520FEF711FB042362880C210520FEF74C
:10261000EBFA2846FEF7ABF8D5E70000000C0140C6
:10262000000801404661696C656420746F20646530
:102630007465637420616E6420696E697469616C8D
:10264000697A652073656E736F72210A000000005D
:1026500024000020766C35336C30785F313D256482
:102660000D0A0000766C35336C30785F313D000028
:10267000766C35336C30785F323D25640D0A00008E
:10268000766C35336C30785F323D0000014840682D
:10269000704700002400002010B50446084610F1E1
:1026A000FF4F02D20849884201DD002010BD0721FA
:1026B000FDF73AFDFDF744FD82B244212046FFF7C5
:1026C00024F8012010BD0000B8FEFF4338B50121F9
:1026D0000420FEF7DFFA01210820FEF7DBFA1424BC
:1026E0008DF803408020ADF8000003258DF80250DE
:1026F00069460848FEF757F88DF803404FF48040CC
:10270000ADF800008DF8025069460348FEF74BF81B
:1027100038BD000000080140000C0140000000002E
:10272000000000000000000000000000000000F8B1
:1027300000000000000000333000000000100C0614
:10274000100C0600000000000000000040C07840AF
:10275000C0784000043F04043F040400007088FC7B
:1027600008300000001820FF211E0000F008F000D3
:10277000E018000000211C031E211E0000F0088844
:10278000700000001E2123241927211010160E00AE
:10279000000000000000000000000000000000E059
:1027A000180402000000000718204000000204186E
:1027B000E00000000040201807000000404080F0CA
:1027C000804040000202010F01020200000000F000
:1027D000000000000101011F0101010000000000D4
:1027E0000000000080B07000000000000000000049
:1027F00000000000000101010101010100000000D2
:102800000000000000303000000000000000000068
:1028100080601804006018060100000000E0100845
:102820000810E000000F102020100F00001010F81A
:10283000000000000020203F202000000070080859
:1028400008887000003028242221300000300888D9
:10285000884830000018202020110E000000C02001
:1028600010F8000000070424243F240000F8088822
:10287000880808000019212020110E0000E01088AF
:1028800088180000000F112020110E0000380808E1
:10289000C83808000000003F0000000000708808F1
:1028A00008887000001C222121221C0000E0100872
:1028B0000810E0000000312222110F00000000C0CB
:1028C000C000000000000030300000000000008068
:1028D0000000000000008060000000000000804058
:1028E0002010080000010204081020004040404071
:1028F00040404000040404040404040000081020C4
:102900004080000000201008040201000070480808
:102910000808F0000000003036010000C030C82870
:10292000E810E0000718272423140B000000C0382B
:10293000E0000000203C23020227382008F88888A5
:1029400088700000203F202020110E00C0300808B1
:1029500008083800071820202010080008F8080888
:102960000810E000203F202020100F0008F8888881
:10297000E8081000203F20202320180008F888884D
:10298000E8081000203F200003000000C0300808C5
:102990000838000007182020221E020008F808004E
:1029A0000008F808203F210101213F20000808F815
:1029B000080800000020203F202000000000080838
:1029C000F8080800C08080807F00000008F888C0F8
:1029D00028180800203F20012638200008F80800A9
:1029E00000000000203F20202020300008F8F800E0
:1029F000F8F80800203F003F003F200008F830C0F2
:102A00000008F808203F200007183F00E0100808E1
:102A10000810E0000F10202020100F0008F8080810
:102A20000808F000203F210101010000E010080823
:102A30000810E0000F18242438504F0008F8888848
:102A400088887000203F2000030C30200070880828
:102A5000080838000038202121221C00180808F836
:102A6000080818000000203F2000000008F80800B7
:102A70000008F808001F202020201F000878880088
:102A800000C83808000007380E010000F80800F8F8
:102A90000008F800033C0700073C030008186880A2
:102AA0008068180820302C03032C30200838C80018
:102AB000C83808000000203F200000001008080867
:102AC000C83808002038262120201800000000FE09
:102AD000020202000000007F40404000000C30C0B5
:102AE00000000000000000010638C00000020202E1
:102AF000FE000000004040407F0000000000040293
:102B000002020400000000000000000000000000BD
:102B100000000000808080808080808000020204AD
:102B200000000000000000000000000000008080A5
:102B3000808000000019242222223F2008F8008013
:102B400080000000003F112020110E0000000080D6
:102B500080800000000E1120202011000000008065
:102B60008088F800000E112020103F200000808097
:102B700080800000001F222222221300008080F0AB
:102B8000888888180020203F2020000000008080D6
:102B900080808000006B94949493600008F800801B
:102BA00080800000203F210000203F200080989876
:102BB000000000000020203F2020000000000080D6
:102BC0009898000000C08080807F000008F8000016
:102BD00080808000203F24022D302000000808F86B
:102BE000000000000020203F202000008080808026
:102BF00080808000203F20003F20003F80800080B8
:102C000080800000203F210000203F2000008080C5
:102C100080800000001F202020201F008080008076
:102C20008000000080FFA12020110E000000008025
:102C300080808000000E112020A0FF808080800016
:102C40008080800020203F21200001000000808043
:102C5000808080000033242424241900008080E038
:102C6000808000000000001F202000008080000005
:102C700000808000001F202020103F2080808000E6
:102C80000080808000010E300806010080800080F6
:102C9000008080800F300C030C300F00008080001B
:102CA000808080000020312E0E3120008080800046
:102CB0000080808080818E701806010000808080F6
:102CC000808080000021302C222130000000000094
:102CD000807C020200000000003F40400000000035
:102CE000FF00000000000000FF0000000002027C66
:102CF000800000000040403F00000000000601018D
:102D00000202040400000000000000002C2D000856
:102D10000000002030000000A41C00085C2D00080A
:102D20003000002000040000B41C00080204060863
:102D30000000000001020304010203040607080961
:102D40000000000000000000000000000000000083
:0C2D500000000000000000000000000077
:04000005080000ED02
:00000001FF
