:020000040800F2
:10000000984900209D01000877080008E5070008CE
:1000100075080008250700081D0E000800000000F4
:1000200000000000000000000000000005010008C2
:10003000270700080000000049010008FD0B000828
:10004000B7010008B7010008B7010008B7010008B0
:10005000B7010008B7010008B7010008B7010008A0
:10006000B7010008B7010008B7010008B701000890
:10007000B7010008B7010008B7010008B701000880
:10008000B7010008B7010008B7010008B701000870
:10009000B7010008B7010008B7010008B701000860
:1000A000B7010008B7010008B7010008B701000850
:1000B000B7010008B7010008B7010008B701000840
:1000C000B7010008B7010008B7010008B701000830
:1000D000B7010008790C0008B7010008B701000853
:1000E000B7010008B7010008B7010008DFF810D019
:1000F00000F078FA004800473D170008AFF3008091
:1001000098490020224B19680868B0E8F00F80F386
:100110000988BFF36F8F4FF0000080F311884EF015
:100120000D0E70470000000006480068006880F36C
:10013000088862B661B6BFF34F8FBFF36F8F00DFE1
:1001400000BF00BF08ED00E0EFF30980BFF36F8F41
:100150000F4B1A6820E9F00F106008B54FF0BF0090
:1001600080F31188BFF34F8FBFF36F8F02F0D4F885
:100170004FF0000080F31188BDE808401968086856
:10018000B0E8F00F80F30988BFF36F8F704700BFAE
:1001900050000020EFF305807047000006488047BC
:1001A00006480047FEE7FEE7FEE7FEE7FEE7FEE75C
:1001B000FEE7FEE7FEE7FEE7290C0008ED00000879
:1001C00040EA01039B0703D009E008C9121F08C0D9
:1001D000042AFAD203E011F8013B00F8013B521E59
:1001E000F9D2704730B50B46014600202022012489
:1001F00009E021FA02F59D4205D303FA02F5491BF5
:1002000004FA02F52844151EA2F10102F1DC30BD0A
:100210002DE9F05F0546002092469B46884606463B
:10022000814640241BE0284641464746224600F0CE
:10023000FAF953465A46C01A914110D3114618464E
:10024000224600F0E1F92D1A67EB01084F462246DD
:100250000120002100F0D8F917EB00094E41201EC3
:10026000A4F10104DFDC484631462A464346BDE896
:10027000F09F2DE9FE4F804681EA0300C00F0C4637
:10028000009021F0004123F00045B8EB0200A941A5
:1002900005D24046214690461C460B46024623F0B6
:1002A0000040104347D0270DC7F30A00C3F30A519B
:1002B0000290401A019040286BDAC3F3130040F417
:1002C000801B0098924620B10023D2EB030A63EB17
:1002D0000B0B01985946C0F14002504600F094F9CA
:1002E00006460D4650465946019A00F0ACF910EB0F
:1002F00008006141002487EA115284EAE7731A4337
:1003000040D0009A62B3019A012A4FEA075215DCE5
:10031000001B61EB02014FF0004202EA0752CDE9F7
:100320000042001C41F5801132462B4600F0ACF92A
:1003300003B0BDE8F08F40462146F9E7001B61EBB2
:100340000201001C41F5801300185B412018A2F542
:10035000001747EB030140EAD570B6196D4111E073
:100360006D084FEA360645EAC0754FEA0752001B92
:1003700061EB0201001C41F5801149084FEA300091
:100380000019514132462B4603B0BDE8F04F00F052
:100390006CB90098012240000023D0EB020263EB0D
:1003A000E073009821464FEAE074B8EB000061EB7F
:1003B0000401E9E783F000435BE781F0004158E77F
:1003C0002DE9FE4F81EA030404F0004421F00041CE
:1003D00000944FF0000B23F0004350EA01045ED07C
:1003E00052EA03045BD0C3F30A54C1F30A552C4408
:1003F000A4F2F3340194A0FB0254C1F3130141F4BD
:100400008011C3F3130343F4801301FB024400FB88
:10041000034E840A970A44EA815447EA8357A4FBAF
:10042000076802958D0A05FB07854FEA932C04FBAC
:100430000C542705029D4FEA065847EA1637B5EBDC
:1004400008056EEB070C870E920E47EA811742EA09
:100450008312A7FB0201B6EB0B0164EB00042B0D2A
:1004600043EA0C335E1844EB1C50DA465146E7FB76
:100470000201C5F313044FEA0B3343EA14534FEA66
:100480000432019C43EA0603A4F10C040294009C8C
:10049000CDE900B400F0F8F803B0BDE8F08F00201B
:1004A0000146F9E72DE9F04D81EA030404F0004B21
:1004B00021F0004514464FF0000A23F0004150EAB5
:1004C000050220D054EA01021DD0C5F30A570246A6
:1004D000C5F31303C1F31300C1F30A5640F48015AA
:1004E00043F48013A7EB0608101BD64608F2FD382C
:1004F00073EB050002D308F1010801E092185B419B
:10050000B8F1000F03DA00200146BDE8F08D0020AD
:100510004FF48011064684460EE0171B73EB050767
:1005200005D3121B63EB050306434CEA010C490893
:100530004FEA300092185B4150EA0107EDD152EAD0
:10054000030012D082EA040083EA0501084305D0C3
:10055000101BAB4106D20122002306E000224FF01F
:10056000004302E06FF0010253101AEB06004CEB5F
:10057000085110EB0A0041EB0B01BDE8F04D00F013
:1005800074B8C1F30A52C1F3130140F2FF3341F4CE
:1005900080119A4202DA00200146704740F233434C
:1005A0009A42A2F2334202DC524200F03CB800F020
:1005B0002BB8000030B5041E71F1000404DB4FF0CD
:1005C0000044404264EB0101141E73F1000405DB9A
:1005D0001C464FF00043524263EB0403994208BFAC
:1005E000904230BD064C074D06E0E06840F0010344
:1005F00094E8070098471034AC42F6D3FFF77AFD31
:10060000502B0008702B0008202A04DB203A00FA47
:1006100002F1002070479140C2F1200320FA03F359
:10062000194390407047202A04DB203A21FA02F057
:100630000021704721FA02F3D040C2F1200291401C
:10064000084319467047202A06DBCB17203A41FAA7
:1006500002F043EAE07306E041FA02F3D040C2F14F
:100660002002914008431946704710B5141E73F1DB
:10067000000408DA401C41F1000192185B411A4362
:1006800001D120F0010010BD2DE9F04D92469B46AE
:1006900011B1B1FA81F202E0B0FA80F22032904654
:1006A000FFF7B2FF04460F4640EA0A0041EA0B0199
:1006B00053465A46084313D0114653EA010019D055
:1006C000C8F140025046FFF7AEFF05460E465046C1
:1006D00059464246FFF798FF084305D0012004E041
:1006E00020463946BDE8F08D0020054346EAE07615
:1006F0002C4337430A986305E40AA0EB0800002264
:10070000FD0A44EA47540A3002D500200146E9E7D1
:10071000010510196941DDE9084500196941BDE885
:10072000F04DA2E7FEE770472DE9F0410022CC78BA
:1007300004F00F03E40601D58C7823430C784FF0C6
:100740000F0714F0FF0F4FF0010C1CD005680CFAD6
:1007500002F40E882640A64211D1960007FA06F848
:1007600025EA080503FA06F848EA0505CE78282E9A
:1007700002D0482E02D002E0446100E00461521C25
:10078000082AE4D305600A88FF2A1ED9456800229A
:1007900002F108060CFA06F40E882640A64210D193
:1007A000960007FA06F825EA080503FA06F848EA6B
:1007B0000505CE78282E00D14461CE78482E00D190
:1007C0000461521C082AE3D34560BDE8F08102466B
:1007D0000020D2680A4200D0012070474161704772
:1007E00001617047FEE7000008B50121082000F014
:1007F0007FF848208DF8030040F60200ADF80000B5
:1008000003208DF8020069460148FFF78DFF08BDFF
:10081000000C014010B5094C02212046FFF7D7FF1C
:1008200028B12046BDE810400221FFF7D7BF20467F
:10083000BDE810400221FFF7D3BF000000080140CF
:1008400038B50121042000F053F810208DF8030082
:100850000620ADF8000003208DF80200044C694624
:100860002046FFF761FF06212046FFF7B9FF38BD9C
:1008700000080140FEE7704770B50F23C2780126DB
:100880000178002A1ED0144A126802F4E062C2F510
:10089000E062120AC2F10404D3404578A540827890
:1008A0001A402A43120101F1E02181F80024007866
:1008B00000F01F018E404009800000F1E020C0F8E8
:1008C000006170BD01F01F0086404809800000F102
:1008D000E020C0F8806170BD0CED00E002490843E3
:1008E00002490860704700000000FA050CED00E0C6
:1008F000054A002903D091690143916170479169CC
:1009000081439161704700000010024010B5264AF3
:10091000516801F00C01254B002927D0042927D06C
:10092000082927D00360516801F0F0010909204B24
:100930005C5C0168E1404160546804F4E064240AAE
:100940001C5D21FA04F48460546804F46054E40AE1
:100950001B5DD940C160526802F44042920B144BB7
:100960001B1F9A5CB1FBF2F1016110BD0360DAE775
:100970000360D8E7516801F47011536803F48033C1
:10098000022404EB914133B153689B0307D5094B13
:1009900059430160C7E7074B59430160C3E7034B65
:1009A00059430160BFE700000010024000127A00C6
:1009B0000400002000093D0030B587B00121880304
:1009C000FFF796FF01210420FFF792FF18208DF812
:1009D0001B004FF40070ADF8180003248DF81A4086
:1009E000204D06A92846FFF79FFE48218DF81B10D1
:1009F0002915ADF818108DF81A4006A92846FFF7FA
:100A000093FE4FF4165002900020ADF814000C2114
:100A1000ADF81210ADF81000ADF80E00ADF80C00F6
:100A2000114C02A9204600F093F9012240F2255111
:100A3000204600F071F94FF4A060FFF74FFF252129
:100A40008DF8041001218DF807108DF805108DF830
:100A5000061001A8FFF710FF0121204600F030F931
:100A600007B030BD0008014000380140AFF30080FE
:100A70000CB50022019200922748016841F48031B0
:100A800001604FF4A063016801F400310091019905
:100A9000491C0191009911B901999942F3D101685A
:100AA000890302D50121009100E0009200990129FB
:100AB00030D11A490A6842F010020A600A6822F02E
:100AC00003020A600A6842F002020A60416841605B
:100AD00041684160416841F480614160416821F4AE
:100AE0007C114160416841F4E8114160016841F0C6
:100AF0008071016001688901FCD5416821F0030122
:100B00004160416841F0020141604168C1F38101E7
:100B10000229FAD10CBD0000001002400020024062
:100B200070B5094CA068401CA06001F02DFE054680
:100B3000FFF770FE05A0A16800F072F92946BDE834
:100B400070400CA000F06CB9180000205377746D51
:100B500072315F43616C6C6261636BE587BDE695E2
:100B6000B0E689A7E8A18C20256420E6ACA1200D81
:100B70000A000000E6BBB4E7AD94E5AE9AE697B68E
:100B8000E599A8E695B0E580BC3D2564200D0A00F6
:100B900070B5084CE068401CE06001F0F5FD0546CA
:100BA00005A0E16800F03CF92946BDE870400CA0C2
:100BB00000F036B9180000205377746D72325F432D
:100BC000616C6C6261636BE587BDE695B0E689A7F1
:100BD000E8A18C20256420E6ACA1200D0A000000CD
:100BE000E6BBB4E7AD94E5AE9AE697B6E599A8E61C
:100BF00095B0E580BC3D2564200D0A0010B5BF20EE
:100C000080F31188BFF34F8FBFF36F8F01F0C2FDE8
:100C100018B104494FF080500860002080F311881B
:100C200010BD000004ED00E010B50F48016841F070
:100C30000101016041680D4A1140416001680C4AA0
:100C400011400160016821F480210160416821F4B4
:100C5000FE0141604FF41F018160FFF707FF054966
:100C60004FF00060086010BD001002400000FFF867
:100C7000FFFFF6FE08ED00E070B50B4D40F2255485
:100C80002146284600F028F801280CD1284600F01B
:100C9000BDF8064A10700120507021462846BDE874
:100CA000704000F005B870BD00380140140000200D
:100CB00040F66A120A0A01219140C9430180704737
:100CC000002904D0818941F40051818170478189D4
:100CD00021F400518181704770B5002440F66A12FA
:100CE000C1F3421301F01F05012606FA05F2012B9C
:100CF0000CD0022B0DD0838A1340090A8E40008845
:100D000030400BB100B10124204670BD83891340EF
:100D1000F3E7038A1340F0E710B540F66A13C1F316
:100D2000421301F01F040121A140012B07D0022B27
:100D300007D014303AB102680A43026010BD0C308B
:100D4000F8E71030F6E702688A43026010BD000041
:100D500030B585B004460D46208A4CF6FF71084038
:100D6000E98801432182A0894EF6F3110840A98841
:100D70002A8911436A8902431143A181A08A4FF64F
:100D8000FF410840A9890143A1826846FFF7BEFDE3
:100D90001D48844201D1039800E00298A18909040A
:100DA00008D500EBC00101EB001029684900B0FB39
:100DB000F1F007E000EBC00101EB001029688900A9
:100DC000B0FBF1F06422B0FBF2F109010B096FF006
:100DD00018056B4300EB8300A3891D044FF0320319
:100DE00007D503EBC000B0FBF2F000F007000843AA
:100DF00006E003EB0010B0FBF2F000F00F00084338
:100E0000208105B030BD0000003801408088C0F36B
:100E100008007047C1F3080181807047FEE70000B9
:100E20000FB4054B10B503A9044A029800F0DAF894
:100E300010BC5DF814FB0000ED160008A4000020B3
:100E400002E008C8121F08C1002AFAD17047704793
:100E5000002001E001C1121F002AFBD170470000F1
:100E60002DE9FF5F82B00021DDE90430020DDDF8DD
:100E700040B0034318D044F61050A2F2FF32424370
:100E80001514119801281FD0A5EB0B00401C5FEA38
:100E9000000A4FF000064E4FDFF83891B04650463A
:100EA00015D5CAF1000413E0119801244AA30128C2
:100EB00001D16FEA0B010298119AC0E90031C0E933
:100EC000024206B0BDE8F09FCBF10000DFE7044628
:100ED0000021404A491842EB0450CDE9001012E0CD
:100EE000E00707D032463B4640464946FFF768FADE
:100EF0008046894632463B4610461946FFF760FA5F
:100F000006460F466410002CEAD1DDE90401DDE954
:100F10000023BAF1000F06DAFFF752FA42464B46B9
:100F2000FFF74EFA05E0FFF7BDFA42464B46FFF7E2
:100F3000B9FA04460E460022284BFFF73BFB03D8C4
:100F40004FF0FF30014607E00022254B2046314696
:100F5000FFF78FF9FFF715FB102409E0002C0ADBDF
:100F60000A220023FFF754F9039B30321A55641EFE
:100F700050EA0102F2D1641C039AC4F11103144433
:100F8000119A012A03D0012208430DD10AE0084337
:100F900004D000204FF0110B119072E7A3EB0B056A
:100FA0006D1E0DE05B4504DD4FF0000205F101050B
:100FB00004E003DA4FF00002A5F10105002AECD0AD
:100FC00002981199C0E90231C0E9004579E70000B3
:100FD000000014400000F03F300000000000F0432B
:100FE0000000E03F2DE9FF4F95B09A46884606463F
:100FF0000025EEE1252877D100242746F94A012172
:10100000039400E0044316F8013F203B01FA03F08B
:101010001042F7D130782A2811D06FF02F033078A2
:10102000A0F13002092A16D8039A44F0020402EB18
:10103000820203EB42021044761C0390EFE758F85B
:10104000042B0392002A03DA504244F40054039024
:1010500044F00204761C30782E2816D116F8010FC1
:1010600044F004042A280DD06FF02F023078A0F14C
:101070003003092B09D807EB870302EB4303C7189A
:10108000761CF3E758F8047B761C30786C280FD078
:1010900006DC4C2817D068280DD06A2814D104E04B
:1010A000742810D07A280FD10DE044F400140AE01F
:1010B00044F4801401E044F440147278824202D176
:1010C00004F58014761C761C307866280BD013DC6F
:1010D000582877D009DC002875D04528F6D0462856
:1010E000F4D047281AD193E118E0632835D064285A
:1010F00079D0652812D18BE1702873D008DC67287D
:10110000F1D069286FD06E280DD06F2806D1ACE0E1
:1011100073282CD0752874D0782853D0524617994C
:1011200090476D1C54E1C4F30250022809D00328F3
:101130000DD0D8F8001004280DD00D6008F1040877
:1011400046E1D8F80010EA17C1E90052F6E7D8F8EE
:1011500000100D80F2E70D70F0E718F8041B8DF811
:10116000001000208DF80100EB46012003E058F844
:1011700004BB4FF0FF3061074FF0000102D40DE0D7
:1011800009F101018946B9420FDA8145F8DB1BF804
:1011900009100029F4D108E009F1010189468142D2
:1011A000FADB1BF809100029F6D103985346A0EB8F
:1011B000090721463846179A00F080FA284400EBC8
:1011C000090507E044E008E10DE01BF8010B524679
:1011D00017999047B9F10109F7D25346214638468D
:1011E000179AF2E039E00A21C4F302524FF0000BE3
:1011F0000091022A06D058F8040BC117032A09D01F
:101200000AE023E008F1070020F00702F2E80201FB
:10121000904605E000B2C117042A01D140B2C117BF
:10122000002906DA0A460021404261EB02012D2224
:1012300002E0220504D52B228DF80420012203E0D0
:10124000E20701D02022F7E7914657E00A2100E0AB
:1012500010214FF0000B00910BE010214FF0000B1C
:1012600044F004040827009103E008204FF0000B2D
:101270000090C4F30252022A05D058F8040B002152
:10128000032A08D008E008F1070020F00702F2E87E
:101290000201904603E080B2042A00D1C0B24FF0B0
:1012A000000922072AD53278702A07D0DDF800C05D
:1012B0008CF0100C5CEA0B0C05D00EE040228DF88F
:1012C0000420012208E050EA010306D030238DF803
:1012D00004308DF8052002229146009B83F008031C
:1012E00053EA0B030AD150EA010201D1620705D586
:1012F00030228DF804204FF001097F1E3278582AE1
:1013000004D039A20C920CAA02920BE03BA2F9E79E
:101310005B46009AFEF77CFF0C9B9B5C029A521E78
:101320000292137050EA0102F2D1029804A9081A3D
:1013300000F1200B600702D524F4803400E001277F
:101340005F4502DDA7EB0B0000E0002000EB0B0186
:10135000009003984944401A0390E00306D4534692
:101360002146179A039800F0A9F90544002706E0E2
:1013700001A85246C05D179990476D1C7F1C4F45D0
:10138000F6DBE0030CD553462146179A039800F08C
:1013900095F9054404E030205246179990476D1C9A
:1013A0000099481E00900029F5DC08E00298029997
:1013B00052460078491C0291179990476D1CBBF169
:1013C0000001ABF1010BF1DC5BE100F065F90544D4
:1013D000761C307800287FF40DAE19B02846BDE8A1
:1013E000F08F0000092801003031323334353637B0
:1013F0003839616263646566000000003031323361
:101400003435363738394142434445460000000000
:10141000600700D4062708F1070020F00700F0E875
:101420000223804603F0004C5FEA0C0001D097A035
:1014300009E0200501D596A005E0E00701D095A0C0
:1014400001E0AFF24C001390307823F000436528A0
:101450000CD006DC452809D046281DD047287FD16E
:101460003BE0662818D067287AD136E00021112F9A
:1014700001DB112000E0781CCDE9000104A90CA8D3
:10148000FFF7EEFCDDE90D010C9A4FF0000B07F1C0
:101490000109109200914EE04FF000400097CDE915
:1014A000011004A90CA8FFF7DBFCDDE90D020C9B81
:1014B0000F994FF0000B91461093009211B9791CCF
:1014C00000EB0109B7EB090003D4C0F1FF3B07F1C2
:1014D0000109A9EB0700019042E0012F00DA012782
:1014E0000021112F01DD112000E03846CDE9000177
:1014F00004A90CA8FFF7B4FCDDE90D010C9A0091DA
:101500004FF0000BB946109221070FD4009A4A45BC
:1015100003DA914601E0A9F10109B9F1010F05DDF6
:10152000109AA9F10101515C3029F4D0B84202DAD5
:1015300010F1040F03DA0121CDE9011010E00028B9
:1015400003DC8344A9EB000102E0411C494500DDB6
:101550008946A0EB0B00401C01904FF00040029028
:10156000200705D40198484502DB4FF0FF30019079
:1015700000208DF84B0002980DF14B07B0F1004FA1
:1015800025D002200C902B200D90029800280CDA18
:10159000404202902D200D9007E00A210298FEF7AC
:1015A00021FE3031029007F8011D0C99481E0C9065
:1015B0000029F2DC02980028EFD1791E0D980870FE
:1015C000307800F0200040F0450007F8020D11A827
:1015D000C01BC01D02901398007800B1012000EBE1
:1015E0000901019801EBE071029801440398401A47
:1015F000401E0390E00306D453462146179A0398F1
:1016000000F05CF805441398007818B15246179919
:1016100090476D1CE00323D553462146179A039843
:1016200000F04CF805441BE0BBF1000F07DB00980D
:10163000584504DD1098179910F80B0001E0179930
:1016400030205246904701980BF1010B401E05F1E6
:101650000105019004D12E205246179990476D1C28
:10166000B9F10001A9F10109DEDC05E017F8010B71
:101670005246179990476D1C0299481E0290002906
:10168000F4DC53462146179A03989EE62D0000008D
:101690002B000000200000002DE9F0410446002549
:1016A0001E461746880404D405E039462020B0477A
:1016B0006D1C641EF9D52846BDE8F0812DE9F04186
:1016C000044600251E469046C80301D5302700E099
:1016D0002027880404D505E041463846B0476D1CF4
:1016E000641EF9D52846BDE8F081000070B50546B6
:1016F000044CE9B22046FFF78DFB20880006FCD59C
:10170000284670BD003801401CB507480121CDE9CD
:1017100000100023802205A1074800F0F7FFBDE874
:101720001C4000F0C5BD00002800002073746172E9
:10173000745F7461736B0000A11F000810B5FFF7A0
:101740007FF8FFF751F8FFF737F9FFF7DDFF0020CB
:1017500010BD00002DE9F04104460F461E4DEE6815
:101760002868001D00F066FC38B9286890F82C1035
:1017700001208840296981432961601C15D1A7B1E6
:10178000164948682A68906082682B68DA602A687F
:101790008368121D5A602A68121D826028684161A0
:1017A0000868401C0860BDE8F08134442868446043
:1017B000B44206D22968E86B091DBDE8F04100F08B
:1017C0005ABC2968A86B091D00F055FCA86A844220
:1017D000E9D2AC62E7E70000500000205C45002041
:1017E00070B5044600F06CFC244DA868401CA8604D
:1017F000286810B1686938B10CE02C60A86801282D
:1018000008D100F07DF905E02868E16AC06A8842E5
:1018100000D82C60686A401C6862E06A01212A696D
:10182000814011432961164A00EB800002EB8000E1
:101830004068A0608168E1608368211D5960816013
:10184000E06A00EB800002EB8001616152F8201039
:10185000491C42F8201000F041FC686900280CD0B7
:101860002868E16AC06A884207D206494FF0805072
:101870000860BFF34F8FBFF36F8F70BD5000002023
:10188000A844002004ED00E010B500F019FC0C4C59
:10189000206880B90B4800F0E0FB0A48143000F0E3
:1018A000DCFB0848E0601430206100220C21052098
:1018B00000F06EFD2060BDE8104000F00FBC00009D
:1018C000900000207045002070B50C4D0C4E11E0CA
:1018D00000F0F6FBF068C468201D00F0ABFBA868C0
:1018E000401EA8606868401E686000F0F7FB204654
:1018F00000F04AF868680028EAD170BD5000002066
:101900004845002030B40B46026C002A0CD0C16858
:101910001144C1608468A14201D30168C160C168FB
:1019200030BC1846FEF74CBC30BC70472DE9F04186
:10193000044617460026A56B226C002A1FD07FB1F3
:10194000E068FEF73DFCE168206C091AE16022685E
:10195000914202D2A168081AE060022F0DD00EE079
:101960006068FEF72DFC216C606808446060A16827
:10197000884204D32068606001E005B16D1E6D1CD3
:10198000A5633046BDE8F08110B50446206B00F039
:10199000B1FB2046BDE8104000F0ACBB0749CA6867
:1019A0001168002904D00021016019B1002070479E
:1019B0000121F9E7D068006870470000900000201E
:1019C0004FF488410F48420706D0C01D20F00700A1
:1019D0000C49411AC1F588410B4A1060002353603D
:1019E0000144083921F00701183A11604B600B607F
:1019F0000B1A436001604068906050604FF00040F7
:101A000050617047A800002048000020074E4FF0AA
:101A10008054074DFFF758FF30680128FAD92C6031
:101A2000BFF34F8FBFF36F8FF4E70000A84400208F
:101A300004ED00E003460098002905D00260C3636E
:101A40000164012100F0C4BC0060F8E72DE9F04713
:101A50008246DDE908570A9C9946521E206B00EB2E
:101A6000820020F00708002600290CD0002023184F
:101A70000A5C83F834200A5C12B1401C1028F6D3AB
:101A800084F8436001E084F83460052D00D3042518
:101A9000E562201D00F0ECFA04F1180000F0E8FA0D
:101AA0002461C5F10500A0616462666484F8486041
:101AB0004A465146404600F065FA2060002F00D0AB
:101AC0003C60BDE8F0872DE9F0470546DDE9089464
:101AD0000E4690461F46FFF7D7FE2560A661E761D8
:101AE000C4F82090201D00F0C3FAB8F1000F04D014
:101AF00014F8240F40F004002070BDE8F0870000C7
:101B000070B50024124D04EB840005EB800000F05A
:101B1000A4FA641C052CF6D30D48643000F09DFA3D
:101B20000B48783000F099FA09488C3000F095FAAB
:101B30000748A03000F091FA0548B43000F08DFA63
:101B400003490448643181631431C16370BD0000EE
:101B5000A84400205000002030B5134900E0114691
:101B60000A688242FBD34B685C18844203D1406808
:101B70001844486008460D6844682318AB420DD1EC
:101B8000094B183B1B689A4206D0526822444260B7
:101B90000A681268026002E0036000E002608142AD
:101BA00000D0086030BD00004800002070B500245F
:101BB000416000610C4D91420AD8D11A826991426C
:101BC00001D301240EE0011D286900F054FA09E058
:101BD0009A4203D2994201D3012403E0011DE8682F
:101BE00000F049FA204670BD9000002010B5044670
:101BF00000F066FAA06B20B1002400F06FFA2046D6
:101C000010BD0124F9E710B5044600F059FAA06BA5
:101C1000E16B884201D1012400E0002400F05EFA6B
:101C2000204610BD70B505460E460D48C068C06818
:101C3000C468201D00F0FEF994F82400410705D582
:101C400032462946204600F0ABF803E020F00100C0
:101C500084F824002046216ABDE87040084700004F
:101C6000900000207FB5324E5AE00198002857DBE3
:101C7000039C606910B1201D00F0DCF9684600F09B
:101C8000B3F8054601980A284AD2DFE800F0490572
:101C900005282E3D0505282E94F8240040F001006B
:101CA00084F824000298A169034601442A4620468C
:101CB000FFF77CFF38B394F82400410707D502985A
:101CC000A1692A460144204600F06AF803E020F0AA
:101CD000010084F82400216A2046884720E014F897
:101CE000240F20F0010020701AE094F8240040F046
:101CF000010084F824000298A06141192B462A466D
:101D00002046FFF753FF0BE094F82400810703D42B
:101D1000204600F0EFF903E020F0010084F82400F1
:101D2000002201A9306800F04DFC00289DD17FBD44
:101D300090000020F8B506460D4600F0E5FA68462A
:101D400000F052F80446009810B100F015FEF8BDFE
:101D500045B9A64206D800F00FFE21463046FFF7EF
:101D600061FFF8BD0C481DB10169096891B10025FA
:101D7000311B2A46006800F0EBF900F0FDFD002859
:101D8000EFD106494FF080500860BFF34F8FBFF38B
:101D90006F8FF8BD0125EBE79000002004ED00E017
:101DA00070B505460C46164604E0A8690444296A45
:101DB00028468847A8692346011932462846FFF776
:101DC000F5FE0028F1D170BD0648816B0968002935
:101DD00004D0816BC9680968816270474FF0FF3198
:101DE000816270475000002070B5054600F0CCFCC1
:101DF0000446074EB068844204D200F00BF801207C
:101E0000286001E000202860B460204670BD00001A
:101E10009000002070B5094C4FF0FF3504E0C06819
:101E200000682946FFF7FEFEE0680268002AF6D146
:101E3000E0682169E160206170BD00009000002031
:101E4000BF2080F31188BFF34F8FBFF36F8FFEE782
:101E500008B56846FFF7A2FD0099FFF76BFFFFF793
:101E600001FFF6E72DE9F041044600F029F994F965
:101E7000455004F1240609E0606A48B1304600F09C
:101E800017FD08B100F0DCF96D1E6DB2002DF3DC1A
:101E90004FF0FF3684F8456000F020F900F010F9AB
:101EA00094F9445004F1100709E0206948B138461C
:101EB00000F0FEFC08B100F0C3F96D1E6DB2002DFC
:101EC000F3DC84F84460BDE8F04100F007B900009D
:101ED0002DE9F0410446002600F016FA284F386834
:101EE00008B9FFF76DFD7869044243D184B104F16C
:101EF0000805A5420CD968070BD005F00700C0F112
:101F000008002844A84201D9054602E0002500E067
:101F100000257DB3786885422CD8194918310846C8
:101F2000046801E0214604466068A84202D22068A5
:101F30000028F7D1386884421CD00E680836206823
:101F400008606068411B102904D960194160656010
:101F5000FFF702FE61687868401A7860BA689042BC
:101F600000D2B86078690143616000202060F868A1
:101F7000401CF86000F000FD3046BDE8F081000034
:101F80003000002020384FF08073C36121F0010140
:101F900081610249416140F820297047411E0008D3
:101FA00038B500F08DF81848012300901A464FF418
:101FB0007A7116A000F06AFD184C2060002540B12F
:101FC00000F0E2FB0246009500230121206800F0AA
:101FD00095FD134800900223002241F2883111A0A0
:101FE00000F054FD606040B100F0CEFB0246009569
:101FF00000230121606800F081FD002000F0CCF892
:10200000BDE8384000F06AB8210B00084175746FD4
:1020100052656C6F616454696D6572001800002030
:10202000910B00084F6E6553686F7454696D65724B
:10203000000000000169D0E901329A60D0E9012373
:102040005A604A68824201D182684A600022026175
:102050000868401E08600868704700F10801416088
:102060004FF0FF328260C160016100210160704762
:1020700000210161704730B50C68621C02D000F18C
:10208000080202E0026904E01A4653681D68A5428E
:10209000FAD953684B6099608A60516008610168A1
:1020A000491C016030BD42684A6093688B60936848
:1020B0005960916008610168491C01607047000027
:1020C000BF2080F31188BFF34F8FBFF36F8F02489B
:1020D0000168491C016070472C0000200449086811
:1020E000401E0860002801D180F31188704700006D
:1020F0002C00002070B500281BD0083804460D4D78
:1021000060686969084214D02268002A11D18843A6
:10211000606000F0F9F8606869680844686020460B
:10212000FFF71AFD2869401C2861BDE8704000F0E7
:1021300023BC70BD300000204FF0E0200021016181
:102140008161024941610721016170473F19010026
:1021500070B504460D461646FFF7B2FF94F94430B9
:102160004FF000005B1C01D184F8440094F9451045
:10217000491C01D184F84500FFF7B0FFA06B28B9D6
:102180003246294604F1240000F070F82046BDE8EC
:102190007040FFF767BE000070B50446FFF790FF80
:1021A000204D04B92C68201DFFF744FF58B9E06AA0
:1021B0001D4A00EB800152F8211021B90121814014
:1021C000286988432861A06A18B104F11800FFF754
:1021D00031FF686A401C68622868844208D112484E
:1021E000211DA030FFF75FFF6868401C686007E0B2
:1021F000A868401EA8602046FFF7C6FBFFF7E4FD75
:10220000FFF76CFF686900280AD02868844207D16C
:1022100006494FF080500860BFF34F8FBFF36F8FB8
:1022200070BD000050000020A844002004ED00E034
:1022300002490A6A0260C968416070475000002084
:1022400001490120C86170475000002010B50C46BC
:10225000054909681831FFF70EFF2046BDE8104018
:102260000121FFF777BA000050000020F0B40346C8
:102270000C4658680D490D68E86185680E6835623E
:102280000D688668183575600D68183585600868B2
:1022900083621868401C1860002A01D04FF0FF3498
:1022A0002046F0BC1146FFF755BA00005000002050
:1022B0007CB511480025CDE900502B4680220FA1A6
:1022C000104800F023FA012801D100F0F9FB0A4C74
:1022D0002C3C01280ED1BF2080F31188BFF34F8F13
:1022E000BFF36F8F4FF0FF30A06201206061E560A7
:1022F00000F036F8206B7CBD7C00002049444C4542
:10230000000000000D1A00080248416B491C41639F
:1023100070470000500000200F4A506B002802D088
:102320000120D06170470020D0611069B0FA80F0C0
:10233000C0F11F00094900EB800001EB80004168FB
:102340004968416000F10803994201D14968416040
:102350004068C0681060704750000020A84400200A
:1023600010B50948016841F47F010160016841F03E
:102370007F410160FFF7E0FE044900200860FDF79F
:10238000D3FE002010BD000020ED00E02C00002056
:10239000F8B505460E4617460024002D16D0601EDF
:1023A000B0FBF5F0B04211D305FB06F010F1490F78
:1023B0000CD84830FFF78CFD04463CB12246483229
:1023C0003B46314628460094FFF734FB2046F8BDD3
:1023D0002DE9F04104460F460125002C3BD0E26B6D
:1023E000C2B3AE1EB6FBF2F1206C814233D3FFF7CD
:1023F00067FED4E90F20216802FB0011A1600021D3
:10240000A16321686160E06B2268216C401E00FBC3
:102410000121E16084F8446084F8456004F1100013
:1024200047B1FFF71AFE04F12400FFF716FEFFF78D
:1024300055FE11E021690029F9D000F039FA002891
:10244000F5D007494FF080500860BFF34F8FBFF3BE
:102450006F8FECE7FFE700252846BDE8F08100001C
:1024600004ED00E02DE9FF4782B004468A46994614
:102470000025A8464FF08056374FFFF721FEA06B8E
:10248000E16B884206D3B9F1020F03D00498F8B18A
:1024900015B325E04A4651462046FFF747FA616AE0
:1024A00051B104F1240000F003FA58B13E60BFF3CB
:1024B0004F8FBFF36F8F05E020B13E60BFF34F8FAA
:1024C000BFF36F8FFFF70AFE012006B0BDE8F0876B
:1024D000FFF704FE0020F8E76846FFF7A9FE012594
:1024E000FFF7FCFDFFF710FFFFF7EAFD94F944004A
:1024F000401C01D184F8448094F94500401C01D16E
:1025000084F84580FFF7EAFD04A9684600F0D2F898
:1025100030B12046FFF7A6FC00F02EFA0020D4E7E9
:102520002046FFF770FB88B104F110000499FFF713
:102530008DFE2046FFF796FC00F01EFA00289CD185
:102540003E60BFF34F8FBFF36F8F96E72046FFF7D4
:1025500089FC00F011FA90E704ED00E02DE9F0416C
:10256000174604461A46BF20EFF3118680F3118800
:10257000BFF34F8FBFF36F8FA06BE36B984206D30F
:10258000022A04D0002086F31188BDE8F08194F976
:102590004550A06B2046FFF7C9F9681C04D06D1C9C
:1025A00084F845500120EEE7606A0028FAD004F173
:1025B000240000F07DF90028F4D0002FF2D0012093
:1025C0003860EFE72DE9F74783B004468A460026D6
:1025D00000274FF08058DFF8D890FFF771FDA56B0A
:1025E000C5B151462046FFF78DF96D1EA5632069E0
:1025F00050B104F1100000F05BF928B1C9F8008077
:10260000BFF34F8FBFF36F8FFFF768FD012006B058
:10261000BDE8F087059808B126B107E0FFF75EFD39
:102620000020F4E701A8FFF703FE0126FFF756FD9F
:10263000FFF76AFEFFF744FD94F94400401C01D106
:1026400084F8447094F94500401C01D184F8457029
:10265000FFF744FD05A901A800F02CF858B1204669
:10266000FFF700FC00F088F92046FFF7BFFA0028CA
:10267000B3D00020CBE72046FFF7B8FA90B104F1C1
:1026800024000599FFF7E2FD2046FFF7EBFB00F081
:1026900073F90028A1D1C9F80080BFF34F8FBFF3B1
:1026A0006F8F9AE72046FFF7DDFB00F065F994E7AE
:1026B00004ED00E02DE9F04106460D46FFF700FD70
:1026C0001148C36874681A1B29684F1C0AD0376800
:1026D000D0F820C00020674506D09C4204D80124D1
:1026E00028600CE000240AE0914206D9881A28608C
:1026F0003046FFF79DFD002401E028600124FFF72C
:10270000EDFC2046BDE8F081500000202DE9FF5F80
:102710008146DDE90E788A4616469B46B000FFF7F3
:10272000D7FB054628000AD04C20FFF7D1FB044612
:102730000CB1256304E02846FFF7DCFC00E0002430
:102740008CB10020CDE90240CDE900785B463246ED
:1027500051464846FFF77AF92046FFF741F8012035
:1027600004B0BDE8F09F4FF0FF30F9E7054841693C
:10277000002903D0406B18B100207047012070473A
:1027800002207047500000200148C06870470000D8
:10279000500000202DE9F0410025434E706B0028C9
:1027A00005D0B069401CB0612846BDE8F081F468EE
:1027B000641CF46044B9B06BF16BB163F063306AD0
:1027C000401C3062FFF700FBB06A384F84420FD3E1
:1027D0004FF0000CB06B006838B1B06BC068C168D6
:1027E0004868844212D2B06202E04FF0FF30B0621B
:1027F0003068C06A00EB800057F82000012800D93B
:102800000125F0690028CFD00125CDE74A69D1E93B
:1028100002309860D1E90203586050680B1D98425D
:1028200001D1C8685060C1F814C01068401E106023
:102830008A6A9AB1D1E90780C8F80800D1E9070887
:10284000C8F80400506801F11808404501D1086A31
:102850005060C1F828C01068401E1060C86A01228C
:10286000D6F81080824042EA0802326100EB800014
:1028700007EB800042688A609068C8609068436097
:102880009360C86A00EB800007EB80024A6157F84A
:102890002020521C47F82020C86A3168C96A884243
:1028A00098D3012596E7000050000020A84400209E
:1028B00070B5C068C068816AD0E907329A60D0E913
:1028C00007235A604B6800F11802934201D1036A52
:1028D0004B60002585620B685B1E0B60244B596BB7
:1028E000012499B1234D6968C1618E6806628E68C2
:1028F00072608A6085622968491C2960C06A19680B
:10290000C96A884232D90120DC6170BD4169D0E9D1
:102910000262B260D0E9022672604E68021D9642E1
:1029200001D1C6684E6045610D686D1E0D60C16ABB
:102930001E6904FA01F535431D610E4D01EB81015D
:102940008C3D05EB8101496881608E68C6608E68A8
:1029500072608A60C16A01EB810105EB810242610C
:1029600055F82120521C45F82120C7E7002070BDF2
:1029700050000020344500202DE9F0410024A046FD
:10298000FFF79EFB3E4D686B401E6863686B002836
:1029900071D1A86800286ED000273A4A01264EE07F
:1029A000D068C468A16AD4E907309860D4E9070305
:1029B00058604B6804F11800834201D1206A4860D6
:1029C000A7620868401E08606169D4E90230986017
:1029D000D4E9020358604B68201D834201D1E368AB
:1029E0004B6067610B685B1E0B60E16AD5F810C035
:1029F00006FA01F343EA0C032B61224B01EB810140
:102A00008C3B03EB81014968A160D1F808C0C4F890
:102A10000CC0D1F808C0CCF804008860E06A00EB74
:102A2000800003EB8001616153F82010491C43F8DA
:102A30002010E06A2968C96A884200D3EE611068F4
:102A40000028ADD10CB1FFF7BFF9AC693CB1FFF77D
:102A5000A1FE00B1EE61641E002CF8D1AF61E869FF
:102A600048B14FF0010808494FF080500860BFF3AB
:102A70004F8FBFF36F8FFFF731FB4046BDE8F0810A
:102A8000500000203445002004ED00E02DE9FC4713
:102A900006460A9D0F46904699462820FFF718FAE9
:102AA000044654B1002084F82400CDE900544B467C
:102AB000424639463046FFF706F82046BDE8FC8717
:102AC0001CB50024FEF7E0FE0848006858B1042059
:102AD00006498201091DCDE90001002304A1064831
:102AE000FFF714FE044620461CBD000090000020A5
:102AF000546D722053766300511E0008FEB50646E1
:102B0000089F9C460020114D2C68002C0ED000918F
:102B100001920296062911DAFFF728FE022806D054
:102B200000231A4669462868FFF79CFCFEBD002377
:102B30003A4669462868FFF795FCFEBD00236246C9
:102B400069462046FFF70AFDFEBD00009000002008
:102B5000702B000800000020A8000000400E0008B4
:102B6000182C0008A8000020F0480000500E0008B3
:102B7000020406080000000001020304010203042D
:102B80000607080900000000000000000000000027
:102B9000000000000000000000000000AAAAAAAA8D
:102BA0000000000000000000000000000000000025
:102BB0000000000000000000000000000000000015
:102BC0000000000000000000000000000000000005
:102BD00000000000000000000000000000000000F5
:102BE00000000000000000000000000000000000E5
:102BF00004000000000000000000000000000000D1
:102C000000000000000000000000000000000000C4
:082C10000000000000000000BC
:04000005080000ED02
:00000001FF
